:020000040000FA
:103800000C9432380C9400380C9400380C94003826
:103810000C94E2300C941C390C941D390C94FF3933
:103820000C9484390C940C350C94AC390C94F53808
:103830000C94BD390C942C390C94E0300C94113557
:043840000C94FF39AC
:1039000002C00000600813E0A2EEB3E0E8E6F1E1D7
:1039100002C005900D92A83FB107D9F723E0AEE7AA
:10392000B2E001C01D92A23EB207E1F710E0C3E091
:10393000D0E004C02197FE010E94A508C230D10743
:10394000C9F75DC30F931F930091D0031091D1036A
:103950002091D2033091D3038091D4039091D50369
:10396000A091D603B091D703081719072A073B0780
:1039700048F4BC01CD01601B710B820B930B1F91AE
:103980000F91089560E070E0CB01F9CF0F931F9382
:10399000CF93DF93FC01BC016F5F7F4F8FEF9FEFF1
:1039A0000E947E08EB010091E6031091E70320914D
:1039B000E8033091E903D901C8014DE0880F991F50
:1039C000AA1FBB1F4A95D1F780279127A227B327AB
:1039D000AC01BD0111E176956795579547951A950C
:1039E000D1F784279527A627B7278C019D0145E0AD
:1039F000000F111F221F331F4A95D1F708271927DF
:103A00002A273B27C801BE01F9D7CB01E617F707E4
:103A100090F20093E6031093E7032093E8033093BA
:103A2000E903DF91CF911F910F9108958091D00309
:103A30009091D103A091D203B091D303E3ECF2E0D3
:103A40004281538164817581481759076A077B0752
:103A500038F4BC9623E0EB3CF20791F781E008953F
:103A600080E008958091D0039091D103A091D2037A
:103A7000B091D3038054984DA64FBF4F8093CB0392
:103A80009093CC03A093CD03B093CE03089580917F
:103A9000D0039091D103A091D203B091D303409170
:103AA0007E0250917F0260918002709181024817DE
:103AB00059076A077B0780F48053984FAF4FBF4F79
:103AC00080937E0290937F02A0938002B093810244
:103AD0008FE38093B002C6CF0895CF93DF93482F32
:103AE000392FD62F86958F71869FC0011124EFEF55
:103AF000F0E0BF0197D7262F2F7142954695469546
:103B00004370832F8770880F880F842B8D9FC0018F
:103B10001124BF0187D7462FC62FCF713695369512
:103B200036953D9FC0011124BF017CD7220F842F01
:103B30008295880F880F807C2160660F660F660F64
:103B40009C2F96959695822B962BDF91CF91089579
:103B5000F8948091310190913201A0913301B0919C
:103B600034018093D0039093D103A093D203B093F8
:103B7000D3037894089590E0882341F0282F30E013
:103B800080FD9F5F35952795822FF6CF892F817015
:103B90000895CF931092AA02C091EA0383E090E0C7
:103BA000F5DE8F5FC817D1F38093EA031092A80265
:103BB000CF910895FF920F931F93CF93DF9300D07F
:103BC00000D000D0CDB7DEB786E0ECEEF3E0DE014A
:103BD000119601900D928A95E1F70AE085E090E058
:103BE000D5DE182F85E090E0D1DEE1E0F0E0EC0FCB
:103BF000FD1FE10FF11D9081A1E0B0E0AC0FBD1FF2
:103C0000A80FB11D8C9180839C93015039F7FE0160
:103C100031969E01295F3F4F8191A82FB0E0A456B5
:103C2000BD4F9C91953011F091118F2D2E173F07AC
:103C300061F426960FB6F894DEBF0FBECDBFDF91BC
:103C4000CF911F910F91FF900895F82EE5CFDF924D
:103C5000EF92FF920F931F93CF93DF93CDB7DEB711
:103C60002A970FB6F894DEBF0FBECDBFCE010196E6
:103C70007C0185E0F70111928A95E9F7ECE9F2E021
:103C800081E0A191AE0DBF2DB11D8C9392E0E23A7F
:103C9000F907B9F785E0E2EFF3E0DE01169601904F
:103CA0000D928A95E1F70AE084E090E06FDE182F2C
:103CB00084E090E06BDEE6E0F0E0EC0FFD1FE10F4A
:103CC000F11D9081A6E0B0E0AC0FBD1FA80FB11DA3
:103CD0008C9180839C93015039F7FE0136969E01AA
:103CE000255F3F4F8191D701A80FB11D9C91911184
:103CF00001C0D82E2E173F07A9F78D2D2A960FB693
:103D0000F894DEBF0FBECDBFDF91CF911F910F9111
:103D1000FF90EF90DF900895FF920F931F93CF9342
:103D2000DF9300D000D000D0CDB7DEB7ECE9F2E0F1
:103D300080E09191953011F091118F5F92E0E23A1D
:103D4000F907B9F7811110C035DF182F80DFE12F97
:103D5000F0E0E456FD4F80832DDF182F78DFE12F50
:103D6000F0E0E456FD4F41C08430B1F786E0ECEE60
:103D7000F3E0DE01119601900D928A95E1F78AE059
:103D8000F82E85E090E002DE082F85E090E0FEDD71
:103D9000E1E0F0E0EC0FFD1FE00FF11D9081A1E0EC
:103DA000B0E0AC0FBD1FA80FB11D8C9180839C9318
:103DB000FA94F110E6CFFE0131969E01295F3F4F44
:103DC0008191A82FB0E0A456BD4F9C91953011F081
:103DD0009111182FE217F30799F7E12FF0E0E4565D
:103DE000FD4F80818093950285E0808326960FB6F3
:103DF000F894DEBF0FBECDBFDF91CF911F910F9121
:103E0000FF900895CF92DF92EF92FF920F931F934E
:103E1000CF93DF930E94141C80E0E82E81E0F82EFF
:103E200002E812E08CE091E0D801F7012191319194
:103E30002D933D938E179F07C9F7D8ECC1E0CD2E87
:103E4000D12C6C2D81E098EF48DE90930101809396
:103E500000019093030180930201909305018093E8
:103E600004019093070180930601909309018093C8
:103E7000080190930B0180930A010E94101C8AEFA5
:103E8000C80E42E064EE73E08D2D0E94081CD394AE
:103E900096E0D912D6CFD452D43189F6C09300011E
:103EA00010920101C093020110920301C09304011A
:103EB00010920501C093060110920701C0930801FA
:103EC00010920901C0930A0110920B010E94101C6C
:103ED000F894409131015091320160913301709119
:103EE0003401789410923F0110924D0110927F019D
:103EF0001092B1011092E301109215021092470244
:103F0000C093410180913F0180FF60C0F8944093CD
:103F100031015093320160933301709334010E9458
:103F2000141C789481E080938E029CDD10924D01E8
:103F300010927F011092B1011092E30110921502CC
:103F400010924702C0E0DC2ED0E0E6E0DE0E6D2DE0
:103F50008FEF9FEFC2DD909301018093000190935A
:103F600003018093020190930501809304019093D3
:103F700007018093060190930901809308019093B3
:103F80000B0180930A010E94101C42E062EE73E074
:103F90008D2F0E94081CDF5FD630B9F6CC5DC43B84
:103FA00091F6F801819191918F01F701819391939D
:103FB0007F01F2E00E381F07A1F7DF91CF911F912B
:103FC0000F91FF90EF90DF90CF9008958091410185
:103FD000882309F49BCFEDE4F1E080E09081992300
:103FE00029F09481953109F081E01082F29692E0F7
:103FF000E937F90799F7882309F484CF87CF81E05F
:1040000080934101A5DD2EDD8EEB9AEB9093F903B1
:104010008093F80380E4809360008091E6039091A0
:10402000E703A091E803B091E90320E21092270191
:10403000309127013323E1F3309127013130C1F36F
:1040400030912701880F991FAA1FBB1F3170832B46
:10405000215061F78093E6039093E703A093E80370
:10406000B093E9030FB6F894A89580916000886139
:1040700080936000109260000FBE10929C0210921C
:104080009D0210929E0210929F021092A002109226
:10409000A10242DE7EDD772473947BEC272E73E051
:1040A000372E44244A9466246A948091F8039091B0
:1040B000F9038E3B9A4B19F084E00E941E1C8091FC
:1040C0003F0186FF74C0B2DC882309F470C000E0B1
:1040D00011E062E8E62E62E0F62ED701F801819148
:1040E00091918D939D9331E0EC30F307C1F7E0E0BF
:1040F00080913E01882321F080913F0187FF2CC0F1
:10410000D7018D919D917D01E801899399938E014D
:10411000AE58B240A9F780913F0187FD47C081E0CA
:10412000809300011092010180930201109203011B
:1041300080930401109205018093060110920701FB
:10414000809308011092090180930A0110920B01DB
:104150000E94101C0E94121CF1E0F09300011092CA
:104160000101F093020110920301F09304011092F7
:104170000501F093060110920701F09308011092D7
:104180000901F0930A0110920B01D1E0DE0FF0E07B
:10419000EE0FFF1FE050FF4F708228EF2183D630D3
:1041A00009F4D0E00E94101CED2FA2CF2BDE8091ED
:1041B0003F0187FD27DECCDC80913F0180FD67DC7D
:1041C00043ECE42E42E0F42E0DE411E0D8018C9192
:1041D000882381F18091D0039091D103A091D203E3
:1041E000B091D30388539F4FAF4FBF4FE7018A83EE
:1041F0009B83AC83BD83F80183818733C9F4D2806C
:10420000D4818D2FB8DC882399F0D70116961D92A2
:104210001D921D921C921997D6FF03C038DC0E9494
:10422000141C8FEF8D0DDF73813069F5F701D0839A
:10423000F8011082FCE2EF0EF11C0E5C1F4F22E031
:104240000937120719F6F89480913E0190913F01C9
:104250008091CF03892B8093CF0310923F018091EF
:104260004001789480918E02882319F010928E027A
:1042700081E09091410191113EC031E030934101C4
:104280001092AF023AC0DA3249F59DEF9D0DB801A8
:104290006B5F7F4FFB0180E035E0300F2E2F231B3B
:1042A000291720F42081820F3196F8CF492F50E052
:1042B000FB01E40FF51F208180952813B9CFD701AA
:1042C0001A968C911A978111B3CF913108F0B0CF23
:1042D0001A969C93C7010B96BED3AACF823009F0E1
:1042E000A7CFD53109F0A4CFE8018D81853109F040
:1042F0009FCF88DD9DCF8111C3CF2091CF03822F27
:104300008D7F21FF03C041E04093AF02322F397F00
:104310003093CF0382FF09C08091AF02882329F038
:1043200051E05093AE021092AF028091AD0288230B
:1043300009F461C0813009F449C18091AF0288233A
:10434000D9F081EC80930001609201018093020119
:10435000609203016092040193E09093050197E05D
:1043600060920601909307018093080190930901E0
:1043700080930A0190930B010E94101CC12CD12C38
:10438000760103EC12E05C2CD80116964D915D91FC
:104390006D917C9119978091D0039091D103A09158
:1043A000D203B091D30384179507A607B70708F483
:1043B000D7C2F801D38DDD2309F4F8C24801FCE12E
:1043C0008F0E911CAD2EB12CA501B40182EB92E0B1
:1043D00042D3F501319680E02CE1200F982D921BFD
:1043E0009D1708F074C2D4019C91890FA4014F5FFE
:1043F0005F4F4A01F3CF8091AE02882359F081E0EC
:104400008093AD0286E08093EB03C3DB1092AC0295
:104410001092AE02C090D003D090D103E090D203AE
:10442000F090D30303EC12E03FE8A32E32E0B32E6A
:10443000F501D80112964D915D916D917C91159782
:104440004C155D056E057F0578F06C91862F90E028
:1044500024E0959587952A95E1F7813039F580819B
:10446000882321F063FF22C0108220C067702CE9EE
:1044700032E0C90140E0EC015991CE01651301C061
:1044800041E0C2EAD2E0C817D907A9F7442371F086
:10449000E90149919E01641305C0AE0141505109E3
:1044A000EA0118822817390799F770829C9631968D
:1044B0002A163B0609F0BECF8091D4039091D50314
:1044C000A091D603B091D7038C159D05AE05BF050D
:1044D000A8F4ACDA882391F01FDC88EE93E056DA7A
:1044E0008854944FC80ED91EE11CF11CC092D4030D
:1044F000D092D503E092D603F092D7039091AD020B
:104500009295907FF50181915F01880F880F880F48
:10451000890F803408F08FE3D80111968C93045DE5
:104520001F4FC5E9D2E0CA15DB0561F7CCE9EC2ED7
:10453000C2E0FC2ED6E9AD2ED2E0BD2EF5018701FA
:10454000D8019D918D018191953011F091112EC06E
:10455000811133C0B2E0023A1B0791F7B0E0CB2ED5
:10456000B1E0DB2EE70129917E01E22FF0E0EE0FB2
:10457000FF1FE852FC4F80819181F50161915F013D
:10458000662359F02530E9F4E0919502F0E0EE0F52
:10459000FF1FE852FC4F808191819FDAD6018D93F5
:1045A0009D936D010E151F05E9F6C7CE8F3F91F261
:1045B000DF0111978B5F8C93CDCFDF011197855071
:1045C000FACF2111EACF8FEF9FEFE7CF8091AE02B4
:1045D000882381F01092AD0210929C0210929D02ED
:1045E00010929E0210929F021092A0021092A102BD
:1045F0001092AE028091AA0281114BC04091D0036B
:104600005091D1036091D2037091D303D091A8024D
:10461000A3ECB2E0E2EAF2E01296CD90DD90ED90EC
:10462000FC901597C416D506E606F70660F08C9147
:10463000982F92959F7069F4887090E010811123F3
:1046400021F0892B31F4108204C0892B11F0DF5F37
:1046500070829C9631962A163B06F1F6D093A802FA
:104660008091EB038D1315C0B1E0B093AA02809145
:10467000EA038093A9021092AB024093D4035093B3
:10468000D5036093D6037093D703D13011F4D09340
:10469000AC02297E2093CF03D091AC0234FF0CC032
:1046A000D1110AC08091AA02882329F08091EB03DE
:1046B00081508093EB036DDA0091EA033091AD02F3
:1046C0003295307F300FE2EAF2E0A3ECB2E088EA04
:1046D00092E02191220F220F220F230F203408F0A5
:1046E0002FE311962C9311979C968E179F0789F7AD
:1046F000DD2309F443C08091D0039091D103A091B0
:10470000D203B091D3034091D4035091D50360916B
:10471000D6037091D703481759076A077B0708F03B
:104720000CCEC296A11DB11D8093D4039093D503E6
:10473000A093D603B093D7038091AB0290E001968B
:1047400068EA70E06FD1282F8093AB0266E04AD10F
:10475000E92FF0E0EE0FFF1FE050FF4F822F67E0E0
:1047600041D1A82FA370AF5FB0E0AA0FBB1FA85222
:10477000BC4F8D919C9191838083DFCD8091AA0263
:10478000882309F43EC08091D0039091D103A09179
:10479000D203B091D3034091D4035091D5036091DB
:1047A000D6037091D703481759076A077B0708F0AB
:1047B000C4CDC296A11DB11D8093D4039093D5039F
:1047C000A093D603B093D7038091AB0290E00196FB
:1047D0006AE270E027D1282F8093AB0266E002D115
:1047E000E92FF0E0822F67E0FDD0EE0FFF1FE050D1
:1047F000FF4F80FD03C0A091A902B6CF4082418245
:104800009CCD10E0000F111F08521C4F20E0E22E3B
:1048100021E0F22ED0E068018091EB03D81708F078
:1048200052C08091A802D81738F4F8018081918194
:10483000D7018D939C9332C08091D0039091D10386
:10484000A091D203B091D3034091D4035091D503EA
:104850006091D6037091D703481759076A077B0701
:1048600028F170D86538B3E07B0781059105E8F63B
:104870006132B3E07B078105910530F060E8F60115
:10488000808191812AD9D4CF6D3BB2E07B0781052D
:10489000910558F6672B682B692B81F7DF5FF2E0F3
:1048A000EF0EF11CD63009F0B7CF47CD88519C4FA1
:1048B000AF4FBF4F8093D4039093D503A093D603FB
:1048C000B093D703EBCFF70170821182E7CFEF549B
:1048D000FD4F8095808382E0B82EBD0EDAE2A09075
:1048E000B0029C2C8A2D90E00C2C02C095958795E7
:1048F0000A94E2F780FF5EC08D2E689486F8882DBA
:104900003AD9811102C0D06C8D2E81E090E001C0B7
:10491000880F9A94EAF78095A822A092B002D82D29
:10492000D093B1024B2D61EB72E0852D0E94081CE3
:104930008823B1F08091D0039091D103A091D2034C
:10494000B091D3038A569F4FAF4FBF4F8C0D9D1D23
:10495000AE1DBF1DE8018E839F83A887B9871B8E7C
:10496000045D1F4FDFEFCD1ADD0AED0AFD0AE6E018
:10497000CE16D104E104F10409F005CD4091CB033A
:104980005091CC036091CD037091CE038091D00300
:104990009091D103A091D203B091D3034817590746
:1049A0006A077B0708F081CB2DDA7BCBD181BB2452
:1049B000B39495CF8D2FDFD88111B2CFD068B0CF0F
:1049C000E8EDF3E081E0808311828FEF828393E052
:1049D000938391EC94838583868387E08783908794
:1049E00081870895991B79E004C0991F961708F0F4
:1049F000961B881F7A95C9F780950895AA1BBB1B43
:104A000051E107C0AA1FBB1FA617B70710F0A61BCE
:104A1000B70B881F991F5A95A9F780959095BC01EF
:104A2000CD01089597FB072E16F4009406D077FD6C
:104A300008D0E4DF07FC05D03EF4909581959F4FA8
:104A40000895709561957F4F0895EE0FFF1F0590B3
:104A5000F491E02D0994FB01DC0102C001900D925C
:104A600041505040D8F7089533331515A28CD69293
:0E4A7000070600010203040500010203040012
:106000000AB400FCFDCF90938900809388008AB584
:1060100081608ABD08959B01F894409131015091AF
:10602000320160913301709134017894420F531F13
:10603000611D711DFC014083518362837383089548
:10604000CF93C62F0E949F38882369F08DE50E9468
:1060500085388C2F0E94853885E78C1B0E948538F7
:10606000CF910C947438CF910895CF92DF92FF9224
:106070000F931F93CF93DF93062FF42E152F0E94BB
:106080009F38882319F18BED0E948538CF2DD12FB1
:106090006E0180E2C80ED11C1BEDF9908F2D0E947D
:1060A00085381F0DCC16DD06C1F7802F0E9485387C
:1060B00082ED801B811B0E948538DF91CF911F915B
:1060C0000F91FF90DF90CF900C947438DF91CF91B7
:1060D0001F910F91FF90DF90CF900895CF93DF93A2
:1060E000C0E0D1E0DE01EC912E2F22952695269579
:1060F000237011968C911197982F9770990F990F83
:10610000922B869586958695E695EF71F0E0EC5B8F
:10611000FF48E491ED87E92FF0E0EC5BFF48E49164
:10612000EE87E82FF0E0EC5BFF48E491EF871296F2
:10613000249681E0AC30B807B1F6DF91CF91089595
:10614000E0E0F1E0119282E0EE37F807D8F38091B9
:10615000310190913201A0913301B0913401805E00
:106160009D4EA54FBF4F8093360190933701A0936A
:106170003801B0933901B2CFC82FF894E1DFC09352
:10618000280108E00EBF0FEF0DBF78940C940000BB
:10619000EDE4F1E0108212AA1092B1011092E30135
:1061A00010921502109247020895F894EEE3F1E080
:1061B00011821482168215821286118678940895AF
:1061C00082E00895FF920F931F93CF93DF93F62EF3
:1061D000072F142FB4D7882361F087E396D7CF2DEC
:1061E000D02F112321F0899190D71150FACF7CD76D
:1061F00081E0DF91CF911F910F91FF900895182FAB
:10620000C12FDE63DF738D2F90E00E948D392FEF59
:1062100080E792E0215080409040E1F700C000000C
:10622000B7DF80E090E00E948D392FEF80E792E0A9
:10623000215080409040E1F700C00000A9DFC1502C
:1062400021F080913F0180FFDCCFC6E0C15021F0FA
:1062500080913F0180FF0CC080913F0180FFD0CF33
:10626000F89480E18093600088E080936000FFCF25
:1062700080E090E00E948D392FEF80E792E021507E
:1062800080409040E1F700C0000082DF80E090E0B5
:106290000E948D392FEF80E792E02150804090409E
:1062A000E1F700C0000074DFD1CF2F923F924F92F0
:1062B0005F926F927F928F929F92AF92BF92CF9296
:1062C000DF92EF92FF920F931F93CF93DF93CDB79F
:1062D000DEB7CD5BD1090FB6F894DEBF0FBECDBFE0
:1062E000782ED62EC655DF4F59834883CA5AD040E0
:1062F00024E0281720F0EE24E394E80E01C0E12CFE
:106300000E94AC3980E090E00E948D39D11002C02B
:1063100008EB01C00DEF37E0731217C0402F440F98
:10632000440FC755DF4F4883C95AD04060E177E238
:10633000CE018F559F4F6FDEF02E51E0C355DF4FDA
:106340005883CD5AD0401FE31BC081E090E0072C5A
:1063500001C0880F0A94EAF7182F10951F7360E0A8
:1063600070E0CE018F559F4F56DEC755DF4F188224
:10637000C95AD040C355DF4F1882CD5AD040F12CB6
:10638000CB55DF4F188219821A821B82C55AD04022
:106390000CDFDD2039F08AE4C255DF4F8883CE5A06
:1063A000D04006C09BE0C255DF4F9883CE5AD04004
:1063B000C655DF4FE881CA5AD040C954DF4FE88341
:1063C000C75BD040C555DF4FF881CB5AD040C85489
:1063D000DF4FF883C85BD04082ED8E1B8F1BC25508
:1063E000DF4F4881CE5AD040841BC754DF4F88838B
:1063F000C95BD040D02E63E0662EC455DF4F1882B3
:10640000CC5AD040872D90E052E3589F9001599F7D
:10641000300D1124F901E35BFE4F1F01AF014D5F09
:106420005F4FCF54DF4F59834883C15BD040F901A0
:10643000E05BFE4FCD54DF4FF983E883C35BD04070
:106440009C01220F331FCB54DF4F39832883C55B58
:10645000D0403196C654DF4FF983E883CA5BD04001
:1064600020503F4FC155DF4F39832883CF5AD0404A
:106470002E0131E8430E511CA201405E5F4FC4540F
:10648000DF4F59834883CC5BD040C355DF4F5881E1
:10649000CD5AD040552319F0112309F4DBC1809166
:1064A0003F0180FDD7C1C355DF4FF881CD5AD040A1
:1064B000F11191C0F1018081882309F48CC0CF547F
:1064C000DF4FE881F981C15BD04080818B3D09F0CD
:1064D00060C0F1018281833209F05BC0C101C4D583
:1064E000882309F456C0CD54DF4FE881F981C35B9E
:1064F000D04081A18F1160C0CB54DF4FE881F9817A
:10650000C55BD040E050FF4F818187709F2D9295F1
:10651000990F907E892B81838F2D8370A1E0B0E04D
:10652000AC0FBD1FF0E28F9FA00DB11D112490E2B2
:10653000C654DF4FE881F981CA5BD04001900D92CB
:106540009A95E1F78330A1F4BE016F5F7F4FC75585
:10655000DF4F8881C95AD040C4D6C755DF4F288144
:10656000C95AD0402F5FC755DF4F2883C95AD04042
:10657000F3940F1129C0C155DF4FE881F981CF5A3B
:10658000D0408081806C808383E08183F02EC12C99
:1065900016C0CF54DF4FE881F981C15BD0408081C4
:1065A000883E51F4F1018281823031F4C1015CD521
:1065B000CC24C394811101C0C12C0F1106C011114C
:1065C00004C061E0600F02C0C12C6F2D872D38DD43
:1065D000F101108201C0C12CAE2CB12CF2E3FA9D66
:1065E0004001FB9D900C1124F401E35BFE4F808180
:1065F000882309F45AC083818D3509F04BC082810C
:10660000833009F047C0CF012FD5882309F442C059
:1066100021E030E00E2C01C0220F0A94EAF7C455A5
:10662000DF4F4881CC5AD040422BC455DF4F4883BE
:10663000CC5AD040F401E05BFE4FD180C501880FF9
:10664000991FD016D0F00D1558F420951223FC0197
:10665000E050FF4F2081206C20832181276009C0FA
:10666000FC01E050FF4F2081206C20832181287F96
:10667000236021839924939401C0912CFC01E05064
:10668000FF4F818187709D2D9295990F907E892B68
:10669000818301C0912C52E35A9DF0015B9DF00D66
:1066A0001124E35BFE4F108201C0912CDF14C0F572
:1066B0008D2D86958695C755DF4F9881C95AD04054
:1066C0008917B8F4E0E2DE9EC0011124D2018419DA
:1066D0009509FC01EA0FFB1FE491ED93C454DF4FD1
:1066E00028813981CC5BD0402A173B0791F7A20162
:1066F0000BC08D2D837041E050E04C0F5D1F30E2E8
:10670000839F400D511D11246D2D8E2DAEDC68E749
:1067100070E0CE018B559F4F7EDCD02E43E0642E7F
:10672000F8944091310150913201609133017091A0
:1067300034017894CB55DF4F88819981AA81BB8140
:10674000C55AD04084179507A607B70718F09110CF
:10675000BDC07CC06110ADC0F89440913101509132
:10676000320160913301709134017894CF55DF4F3D
:1067700088819981AA81BB81C15AD040841795072D
:10678000A607B70748F481E090E00A2C01C0880F03
:106790000A94EAF780951823F501EE0FFF1FE050E9
:1067A000FF4F818187708183112309F44FC0212F0E
:1067B00030E045E0E41609F47FC0E394C9010E2CF3
:1067C00002C0959587950A94E2F780FFF2CF23E007
:1067D000622E8E2DB4D48823C9F0C255DF4F888134
:1067E000CE5AD04092D4C954DF4F8881C75BD04085
:1067F0008CD4C854DF4F8881C85BD04086D4C7543E
:10680000DF4F8881C95BD04080D46ED4EE2DF0E09C
:10681000EE0FFF1FE050FF4F8181886F8183C455C9
:10682000DF4F5881CC5AD040852F90E00E2C02C00B
:10683000959587950A94E2F780FD40C062E370E089
:10684000CE018B559F4FE7DB6A94D02E47DCCC20DE
:1068500009F41BCE83E0E82E10E0812F70D488234A
:1068600029F088EE52D48AEE50D43ED41F5F163001
:10687000A1F7EA94E110F0CF98DC0F1122C080E27A
:10688000089F80011124E0E0F0E080E090E00E1726
:106890001F0729F02491820F911D3196F8CFC6551C
:1068A000DF4FE881F981CA5AD040E817F90749F467
:1068B00011C0992041F070CFE12C80CF68E770E0E3
:1068C000BFCF83E09CDC111184CFC0CF662009F4D8
:1068D00043CF62CFC354DF4F0FB6F894DEBF0FBE75
:1068E000CDBFDF91CF911F910F91FF90EF90DF907F
:1068F000CF90BF90AF909F908F907F906F905F9060
:106900004F903F902F900895C82FF89408E00EBF45
:106910000FEF0DBF7894C9DCC73011F481E001C0DE
:1069200082E02ADCD82F81E0809379024695C0E08E
:10693000442319F04695CF5FFBCFFB0104811581FD
:10694000108260E08C2F7CDBA8016D2F8C2FDCDFA8
:1069500040E050E0E0E0F0E08491480F511D3196B6
:10696000E11587E1F807C1F760E087E0CDDF14B7F4
:1069700014BE87EF84BF0FB6F894A895809160008D
:10698000886180936000109260000FBEC0E8C093E1
:106990006100D1E0D09361002FEF80E792E02150B9
:1069A00080409040E1F700C00000CADB85B7982F17
:1069B000916095BF826085BFC0BF84E8809364000A
:1069C000809168008460809368005F9A729A589AF8
:1069D000599A269A689A279A699A549A529A5E9A6C
:1069E0005D9A569A559AD0936E0082E0809370001B
:1069F00050D384B18F6384B987B1806C87B97894A0
:106A000095D4F894C093610010926100789441D4B9
:106A100011FD9EDF80E0B0DB3CD481E08093790201
:046A200097DFEDDB34
:1070000031C00000FDCF0000FBCF0000F9CF000031
:10701000D9C8000011C1000010C10000F0C100007B
:1070200073C10000F9CC000097C10000DEC0000071
:10703000A4C1000011C10000C3C80000F2CC0000D0
:10704000DEC10000FFFEFDFBFAF8F5F2EEEAE6E035
:10705000DAD3CCC3BAB0A5998C7E6F5F4E3B2813B0
:107060000D090301112483DCFC012281339690E099
:10707000215018F08191980FFBCF81E0923D09F0EB
:1070800080E008952E9870982F9871985C985A987F
:1070900008958FEF87BD88BD16BC95B5906895BDE6
:1070A00095B5906495BD93EA94BD93E29093B0003A
:1070B00090E89093B3008093B4001092B200E1EB9B
:1070C000F0E080818064808383B5806883BD83B570
:1070D000826083BD83B5816083BD82E085BD80838E
:1070E00083B58F7783BD089580EB97E10E940030D0
:1070F000EDE4F1E0118213AA1092B2011092E401C2
:10710000109216021092480208950F931F93CF9386
:10711000DF93082FC8E0D0E011E0812F802319F021
:107120008CE096E002C08EED9EE00E940030110FD0
:10713000219799F7DF91CF911F910F910895F894BE
:1071400042E3849FF0011124E35BFE4F95A591116A
:1071500003C091E0918301C090E078949923C9F134
:1071600021E030E0A90102C0440F551F8A95E2F7E3
:10717000CA01209181002111FCCF98E190938100F8
:1071800010928000109285001092840021E030E07F
:10719000309389002093880093E0909380002CE046
:1071A00036E03093890020938800B19A90916F0067
:1071B000926090936F0080938A008AB581608ABD47
:1071C00089E18093810080EB97E10E94003081E0AB
:1071D000089580E0089585EC80937A0080917A008C
:1071E00086FDFCCF8091790008951F920F920FB613
:1071F0000F9211248F939F9380918A0087B983B94E
:1072000095E39A95F1F7000083B986B995E09A95D0
:10721000F1F7000017B886B90AB400FC03C0109259
:10722000810003C08AB58E7F8ABD9F918F910F9098
:107230000FBE0F901F90189518951F920F920FB6C2
:107240000F9211248F9386B5809327018F910F9011
:107250000FBE0F901F90189590E8899FF0011124A0
:10726000F89483E080935700E895789407B600FC83
:10727000FDCFF89485E080935700E895789407B6A1
:1072800000FCFDCFF89481E180935700E895789455
:1072900008950F931F93CF93DF9300E019E3C0E0AD
:1072A000D1E0980180E090E0F901459154912E5F82
:1072B0003F4FF894FC010A01D0935700E895112440
:1072C000789402968038910579F78C2FC5DFCF5FCF
:1072D00000581F4FCE3229F7DF91CF911F910F91A8
:1072E0000895E0E0F0E091E0F894DB012D913D910C
:1072F000BD01090190935700E895112478943296C6
:10730000E038F10589F7A8CF81E080930C018091E6
:107310000C018111FCCF0C946E30E0E0F1E0819320
:10732000919321E0EC30F207D1F7EECF8EE6809317
:107330007C0085EC80937A008DE58A95F1F700005A
:107340004ADF49DF48DF47DF10927A008A3718F0BA
:1073500082E00C94FF300895F894E1E3F1E080813D
:107360009181A281B381805E9D4EA54FBF4F8583E1
:107370009683A783B08778940895EEDFF89480E829
:107380008093610081E080936100789415BC7ADE7F
:107390001092B10014BC1092B0006B982FEF80E7F0
:1073A00092E0215080409040E1F700C000004F9BE8
:1073B000FECF2FEF80E792E0215080409040E1F730
:1073C00000C0000080916D00806880936D0085E0B2
:1073D00083BF889580916D008F7780936D00F894BE
:1073E00058DE0E94D5307894A1DFF89480E880932D
:1073F00061001092610078941092410108951F92EB
:107400000F920FB60F921124FF920F931F932F9399
:107410003F934F935F936F937F938F939F93AF931C
:10742000BF93CF93DF93EF93FF9316B1109586B57B
:1074300078948C5E96B59817E8F316B917B985E07D
:107440008A95F1F7000017B816B98091B20087FF4E
:10745000B3C0C091350180E28C0F8D3708F4A9C00C
:107460008091310190913201A0913301B0913401AA
:107470000196A11DB11D8093310190933201A0931B
:107480003301B0933401409136015091370160913E
:10749000380170913901481759076A077B0708F4CA
:1074A0006CDF80913F0169B1562F5095551F5527CC
:1074B000551F90913E01409142012091430130912E
:1074C0004401591349C04111415067FD2FC0211596
:1074D000310529F02150310911F4109245016091D4
:1074E0004701709148016F5F7F4F7093480160932F
:1074F0004701613797E1790730F0806810924801C1
:107500001092470149C0693B9BE0790710F0806405
:1075100043C0613B744008F43FC090914601911113
:107520003BC0826091E09093460136C02115310541
:1075300099F12150310981F590914501913011F473
:10754000886007C0923011F4806103C0806290931C
:1075500040011092450120C041111DC0909145018C
:1075600067FD0BC081609F3F09F09F5F109248014B
:10757000109247012AE431E007C0846021153105EB
:1075800009F490E0109246019093450150933E011A
:1075900044E191E002C044E190E080933F014093D8
:1075A000420130934401209343019111D5DE83EAD7
:1075B0008C0F8093350173C0809126019091250135
:1075C000C92FD0E0823009F441C028F4882351F05B
:1075D0008130C9F062C0833009F445C0843009F4B9
:1075E00051C05BC04FDDCC0FDD1FCC0FDD1FC05085
:1075F000DF4F8F858F3F29F083E28093B000539A4D
:107600006B9A81E04AC06B98923081F030F49923F4
:1076100059F0913081F4709A0EC0943059F040F0D6
:10762000953049F45A9A07C02E9A05C02F9A03C084
:10763000719A01C05C9ACC0FDD1FCC0FDD1FC050CA
:10764000DF4F8F858093B40082E027C08FEF809357
:10765000B400CC0FDD1FCC0FDD1FC050DF4F8D8578
:1076600087BD83E01AC053988093B0008FEF87BD29
:10767000CC0FDD1FCC0FDD1FC050DF4F8E8588BDC6
:1076800084E00BC08FEF88BD9F5F963019F4109295
:107690000C0190E09093250180E080932601C7E4DF
:1076A000D2E000E2FF24F3949CA5802F812309F40B
:1076B00056C08DA59430D8F4882309F443C0923085
:1076C00010F490E801C090E0282F2695922B80FFBF
:1076D00042C08A81883248F48A81FE01E80FF11D98
:1076E00093838A818F5F8A835EC01A822BC0973012
:1076F00098F5803849F59A81992371F1F8828B8148
:107700008B3071F48A81843059F4CE01ADDC88234A
:1077100039F080917902811115C0402FBE0111C04E
:107720008B818A3479F48A81843061F4CE019CDCC7
:10773000882341F080917902811104C0402FBE015D
:1077400081E0F0D880E008C09881911105C099814E
:10775000992341F101C0892F8DA71CA606C098303E
:1077600018F49F5F9CA701C01DA6E297069581E0D3
:10777000CB31D80709F098CFFF91EF91DF91CF91EE
:10778000BF91AF919F918F917F916F915F914F9139
:107790003F912F911F910F91FF900F900FBE0F906F
:0A77A0001F9018951A8280E8D7CFD9
:00000001FF
